:100000000C9434000C943E000C943E000C943E0082
:100010000C943E000C943E000C943E000C943E0068
:100020000C943E000C943E000C943E000C943E0058
:100030000C943E000C943E000C943E000C943E0048
:100040000C943E000C943E000C943E000C943E0038
:100050000C943E000C943E000C943E000C943E0028
:100060000C943E000C943E0011241FBECFEFD8E04C
:10007000DEBFCDBF0E9440000C9466000C940000CF
:100080008BB183608BB9219A92E02FE738E381E04E
:10009000215030408040E1F700C00000489903C083
:1000A00085B1892785B9489BFECF2FE738E381E0EA
:1000B000215030408040E1F700C00000499903C062
:1000C00085B1892785B9499BFECFDFCFF894FFCF53
:00000001FF
