:100000000C9434000C943E000C943E000C943E0082
:100010000C943E000C943E000C943E000C943E0068
:100020000C943E000C943E000C943E000C943E0058
:100030000C943E000C943E000C943E000C943E0048
:100040000C943E000C943E000C943E000C943E0038
:100050000C943E000C943E000C943E000C943E0028
:100060000C943E000C943E0011241FBECFEFD8E04C
:10007000DEBFCDBF0E9440000C9464000C940000D1
:100080008BB183608BB9219A92E0489B02C0499959
:1000900011C085B1892785B9489B02C04999F5CF20
:1000A0002FE738E381E0215030408040E1F700C085
:1000B0000000F2CF2FE738E381E02150304080404C
:0C00C000E1F700C00000E1CFF894FFCF92
:00000001FF
