:100000000C9434000C9449000C9449000C94490061
:100010000C9449000C9449000C9449000C9449003C
:100020000C9449000C9449000C9449000C9449002C
:100030000C9449000C9449000C9449000C9449001C
:100040000C9449000C9449000C9449000C9449000C
:100050000C9449000C9449000C9449000C944900FC
:100060000C9449000C94490011241FBECFEFD8E036
:10007000DEBFCDBF11E0A0E0B1E0E6EDF1E002C0EF
:1000800005900D92AA31B107D9F70E94C7000C94D0
:10009000E9000C94000080E28093B8001092B9004F
:1000A00084E08093BC00089584EA8093BC00809132
:1000B000BC0087FFFCCF08958093BB0084E8809349
:1000C000BC008091BC0087FFFCCF089584E9809339
:1000D000BC000895CF93DF93C82F0E9454008EE494
:1000E0000E945C00DC2FD07F8D2F8C600E945C0012
:1000F0008D2F88600E945C0080E1C89FE001112480
:100100008C2F8C600E945C008C2F88600E945C00A9
:1001100084E98093BC00DF91CF910895CF93DF9362
:10012000C82F0E9454008EE40E945C00DC2FD07F18
:100130008D2F8D600E945C008D2F89600E945C0075
:1001400080E1C89FE00111248C2F8D600E945C002B
:100150008C2F89600E945C0084E98093BC00DF9151
:10016000CF910895CF93DF93EC018991811103C062
:10017000DF91CF9108950E948E00F7CF80E80C9414
:100180006A0080EC0C946A0081E00C946A000E9482
:100190004B0083E30E946A0082E30E946A0088E2C7
:1001A0000E946A008EE00E946A0081E00E946A005C
:1001B0008FE39CE90197F1F700C0000080E091E037
:1001C0000E94B2000E94C1008DE091E00E94B20046
:0601D000FFCFF894FFCF01
:1001D60048656C6C6F20776F726C64210048697596
:0A01E6007261204D696861746500C4
:00000001FF
