:100000000C9434000C9449000C9449000C94490061
:100010000C9449000C9449000C9449000C9449003C
:100020000C9449000C9449000C9449000C9449002C
:100030000C9449000C9449000C9449000C9449001C
:100040000C9449000C9449000C9449000C9449000C
:100050000C9449000C9449000C9449000C944900FC
:100060000C9449000C94490011241FBECFEFD8E036
:10007000DEBFCDBF11E0A0E0B1E0EAE6F1E002C0F2
:1000800005900D92AC30B107D9F70E94A9000C94ED
:10009000B3000C9400005D9A8FEC97E00197F1F7A4
:1000A00000C000005D988FEC97E00197F1F700C069
:1000B00000000895CF93DF93C82FD62F61115E9A69
:1000C0009BB18C2F82958F70892B8BB90E944B002E
:1000D0008BB1807F8BB98BB1CF70C82BCBB90E940D
:1000E0004B008BB1807F8BB9D1115E98DF91CF919E
:1000F0000895CF93DF93EC018991811103C0DF91C3
:10010000CF91089561E00E945A00F6CF61E00C940F
:100110005A0060E083E30E945A0060E082E30E949C
:100120005A0060E088E20E945A0060E08EE00E947F
:100130005A0060E081E00C945A0060E080E80C9482
:100140005A0060E080EC0C945A0060E081E00C946E
:100150005A008AB18F668AB90E94890080E091E0D6
:0A0160000E947900FFCFF894FFCF52
:0C016A0048656C6C6F20776F726C64004D
:00000001FF
