:100000000C9434000C9440000C943E000C943E0080
:100010000C943E000C943E000C943E000C943E0068
:100020000C943E000C943E000C943E000C943E0058
:100030000C943E000C943E000C943E000C943E0048
:100040000C943E000C943E000C943E000C943E0038
:100050000C943E000C943E000C943E000C943E0028
:100060000C943E000C943E0011241FBECFEFD8E04C
:10007000DEBFCDBF0E9450000C945A000C940000CB
:100080008F938FB78F939F939BB189B18095887021
:10009000977F892B8BB99F918F918FBF8F911895E7
:1000A000539A5A9AE9E6F0E0808182608083E89A68
:0800B00078940895F894FFCF45
:00000001FF
